:020A810000660D
:020A83000998D0
:020A8500083532
:020A8700001E4F
:03000B0002032BC2
:10032600C2AF80FE3212032A85D00B75D008AAE030
:10033600C28CE58A240FF58AE58C34FEF58CD28CC6
:10034600EC2417F8E6BC030274FFC39581B41400CD
:1003560040CE7904780E16E608700BC2AFE630E19F
:10036600034418F6D2AF08D9EDEA8BD03009012242
:10037600D50DFCC0E0C0D0C0F0C083C082C000C0B4
:1003860001C002C003C004C005C006C007E50C23B7
:10039600240FF87440C2AF46F6D2AFD209E50CFF7F
:1003A60023240FF80F0808BF04047F00780FE630F7
:1003B600E4F200E50CC39F5020050C7416250CF8DA
:1003C600E6FDA68108E6AE0CBE030274FFCDF8E892
:1003D6006D60E008E6C0E080F6E50CD39F4027E5B7
:1003E6000C2417F8E6AE0CBE030274FFFD18E6CD2A
:1003F600F8E5816D6006D0E0F61880F5E50C241668
:10040600C8F6150C80D3750D05E50C23240FF87F6F
:1004160004C2AFE610E61E30E00310E20C7F0030A7
:10042600E10730E3047F0854F4547CC6D2AF54800D
:100436004207C20922F6D2AFD007D006D005D004B3
:10044600D003D002D001D000D082D083D0F0D0D05B
:10045600D0E0C209227816A68174036006FF0876EA
:10046600FFDFFB7F04E4780EF608F608DFFA780F64
:100476007630900A81740193C0E0E493C0E0750D74
:1004860005438901758A08758CFED28CD2AFD2A934
:0204960022033F
:1007110075C60DE4F5C790203FE0F58F7585077527
:100721008440758601758E8075D8A3E4F5D975E18D
:10073100F075D10FF59075DAF675E2F675CFCF75D4
:10074100D239F5A0F5DBF5E375D3FFF5B075DCDF44
:1007510075E4DF75D7EF75D43CF5B375DDEF75E55D
:10076100CF75D510758911D28CD2A9C2C9C2CA75EB
:10077100CBFF75CAE0438E10438E08C28EC2AB75A3
:10078100977FF593759241F59B75AEBF75A201F503
:02079100AB2299
:0C0A6900E4900015F0A3F0C207C20822C0
:1007E900EFB40110C2CAE4F5C9C29053B3DFF5A052
:1007F90053ABBF22900017E024FD900012F0900047
:100809001DE5A0F0E054F0F0900012E014FF74012F
:10081900A807088002C333D8FCFF90001DE04F44AD
:0C08290010F5A0D2CA75C90243B320220A
:080A8900D205E4FF1205212251
:080A9100D208E4FF1205212246
:10006600120711120A69D2B57F011204987F021293
:1000760004987F03120498C2CAE4F5C9C29053B328
:10008600DF9000207414F0E4FBFDFF120036E4F567
:100096008053A01FFBFA7DFA7F0212054875800F78
:1000A60043A0E0E4900010F0900017740FF0E4FF16
:1000B600120521E4FBFAFD7F01120548120AA790FA
:1000C6000011EFF0900017E014B40F0050E5900017
:1000D600E275F003A4C58325F0C5837302010F0200
:1000E60000B90201530201530201530201530201F6
:1000F600530200B9020206020206020206020206C4
:100106000200B90202B30202EF900011E06411701E
:10011600347F02120AB3E4FBFA7D0A7F0212054815
:100126009000177403F090001274FFF0120AAD905D
:1001360000207414F07B04E4FD7F01120036D20621
:10014600D2B50200B97F01120AB30200B9900011BC
:10015600E06411600330080E900017740EF0E4FF9F
:100166001205210200B9900011E06401702E900082
:1001760017E004F0E0B408037404F0E4FF1207E9A2
:10018600900017E024FD900012F09000207414F007
:100196007B027D027F011200360200B9900011E059
:1001A600640270379000177409F090000F7406F01F
:1001B6007F011207E9E4900012F0900020740AF023
:1001C6007B037D037F011200362003030200B9E49E
:1001D600FBFA7D057F0212054880EE20050302002A
:1001E600B9900017E0640370030200B99000207410
:1001F6000AF07B047D04E4FF120036C2050200B952
:10020600900011E06411600330080E900017740E20
:10021600F0E4FF1205210200B9900011E0640170BC
:100226002A9000177404F0E4FF1207E9900017E023
:1002360024FD900012F09000207414F07B027D02E1
:100246007F0112003653ABBF0200B9900011E06483
:10025600027040900017E004F0C3940D4003740947
:10026600F090000F7406F07F011207E9E490001287
:10027600F0900020740AF07B037D037F01120036A4
:10028600900017E0B40C0643AB400200B953ABBF75
:100296000200B92005030200B9900020740AF07B21
:1002A600047D04E4FF120036C2050200B99000176F
:1002B600740FF0E4900010F0C2067F011207E9E423
:1002C600900012F053ABBFC205900015F0A3F0C228
:1002D60007FF1205219000207414F0E4FB7D047FD3
:1002E60001120036C2080200B930030CE4FBFA7DA5
:1002F600057F0212054880F1E4FBFA7D0A7F0212AF
:100306000548C2B5C2CAE4F5C9C29053B3DF7F013E
:10031600120AB39000177401F00200B90200B92264
:0300330002096956
:10096900C0E0C0D075D00075C604C2DC20DCFBE451
:10097900FFEFC39420500EE4FEEEC3942050030E03
:0F09890080F70F80EC75C60DC2DCD0D0D0E03205
:070A990075DE20E4F5DF2209
:10093800EF4420F5DF43DEC0E5DE20E40CE4FBFAFB
:100948007D017F0212054880EF53DEEFAFE6EF75B9
:10095800F004A4FFAEF0E5DE5403FDE5F0EF4DFF33
:01096800226C
:100793007F1C120938900022EEF0A3EFF0C3E0941F
:1007A30055900022E09402502D900015E475F0015D
:1007B300120A43FED3E5F09490EE9401401820070B
:1007C30015900016E024FFF0900015E034FFF0D2FE
:1007D300077F02120AB3900022E0FFA3E090001308
:0607E300CFF0A3EFF022AD
:10001E00200603120A99E4FBFA7D057F02120548B9
:03002E0080EE223F
:100A5900FD34FD82FDC8FDE8FE22FE56FE85FE9AA4
:03001B000209E8EF
:1009E800C0E0C083C082C28F30030E900001E0F5E2
:1009F8008DA3E0F58BB2938002C293D082D083D0CE
:020A0800E032DA
:1005A70020030302065F90000CE0FF900000E004C8
:1005B700FEF0C3EF6480F8EE64809850030206698A
:1005C700E4F030021490000EE0FF900005E0FEEF2B
:1005D7006480F8EE648098401820021890000EE0BE
:1005E700FF900005E0FED3EF6480F8EE648098404A
:1005F70003C20322900005E0FF3395E0FEEF25E0FC
:10060700FFEE33FE74592FF582740A3EF583E493A7
:10061700900001F0900005E0FF3395E0FEEF25E044
:10062700FFEE33FE745A2FF582740A3EF583E49386
:10063700900002F0900001E0F58DA3E0F58B75893D
:1006470011C28FD2ABD28E300207900005E014F0B2
:1006570022900005E004F022C28EC2AB9000007425
:03066700FAF02284
:10003600300303EF6021D203C204900005EDF09077
:100046000020E090000CF090000EEBF0FFEDD39F47
:080056004003D20222C2022283
:10066A00E4FD900021F0E5B01313543F54039000C9
:10067A0009F0A3E0FF900009E06F600FE0A3F0909B
:10068A000009900006F0E4A3F0A3F0E4FDC3900093
:10069A0008E09465900007E09400500CA3E004F091
:1006AA007006900007E004F0900007E07004A3E0F1
:1006BA0064037019900008E004F07006900007E0E7
:1006CA0004F0900006E0FD702F7DF0802B9000076B
:1006DA00E07004A3E06464701F900006E0FD6018F7
:1006EA00900008E004F07006900007E004F0EDB412
:1006FA0001047D1180027DF090000DE06D6007ED30
:07070A00F0E4FF12052122BB
:060AA70090000DE0FF22AB
:100A2700900004E004F0C394644010E4900004F0E4
:0C0A3700B200300003F5802275800F2211
:100A0A0090000BE004F0C394644011E490000BF0F2
:0D0A1A00B2013001047580052275800A22AA
:1009030030070C900017E064016004120A0A229079
:100913000012E0B4FF04120A2722900012E06011D3
:1009230014FF7401A807088002C333D8FCF4F580D0
:050933002275800F2277
:1008C100AEA0900017E024F7601A14602714601C92
:1008D10014600B8000EE541FFF53ABBF801CEE442D
:1008E100E0FF8016EE541F4480FF800EEE541F443B
:1008F10040FF8006EE541F4420FF8FA0E4900003C8
:02090100F022E2
:060AAD00E4900004F022B9
:10099800900007E4F0A37465F0120AAD120AA012E1
:1009A800066A1205A71209031208C1E4FBFA7D05BD
:0809B8007F0212054880E522D0
:070AA000C2DBC2DAD2D8224A
:0300630002000692
:05000600C2DBD2D8327C
:0300030002000EEA
:03000E00C2893272
:03001300020016D2
:03001600C28B3268
:1009C000E4F5A1F5A8C2A953A1EFC2D975BA01D225
:1009D000A8D2AF5391FE75800FF590F5A075871ED4
:0809E000C2A8D2A943A1102214
:060AB30090001AEFF02292
:10087C0090001BE475F001120A43FEC3E5F094E806
:10088C00EE9403402F300703120A91E490001BF002
:10089C00A3F0120A89900018E475F001120A43FEC5
:1008AC00C3E5F09478EE9400400AE4900018F0A3AD
:0508BC00F0120A912278
:10083500E490001AF090001AE024FE601614602778
:1008450024027026E4FBFA7D0A7F0212054812098C
:10085500C08017E4900018F0A3F090001BF0A3F0FF
:100865007F03120AB3800312087CE4FBFA7D057F3F
:070875000212054880BF22BA
:10049800EFD3940340037FFF22740F2F2FF8E62039
:1004A800E5F4C2AFE64430F6D2AFAE0CEEC39F50CF
:1004B800210E74162EF8E6F908E618BE030274FF3A
:1004C800FDED69600909E71919F7090980F316169E
:1004D80080DAEED39F400405810581EED39F402248
:1004E80074162EF808E6F9EEB50C02A9811806066E
:1004F800E6FDED6960091919E70909F71980F31E86
:1005080080D9EF2416F8E604F8EF2F04900A8193B7
:09051800F608EF2F93F67F002294
:10052100EFD3940340037FFF22EF23240FF8C2AFE0
:10053100E630E50530E002D2E4D2E2C6D2AF7F0078
:0705410030E2010F02037517
:100548008FF0E4FFFEE50C23240EF8C2A930F70D66
:100558007F08E6600B2DF660325030800730F106D8
:10056800EDF660277E020830F010C2AFE610E725EE
:100578000E30E20CD2AF7F048014C2AFE610E7154C
:1005880054EC4EF6D2AFD2A90203A17F0808EF447B
:0F05980083F4C2AF56C6D2AFD2A954804FFF2210
:03000000020A757C
:0C0A7500787FE4F6D8FD75812102045B57
:100A4300C5F0F8A3E028F0C5F0F8E582158270023E
:060A53001583E038F022DB
:00000001FF
