:0300000002001EDD
:0C001E00787FE4F6D8FD758121020066B1
:03001B0002045884
:10045800C0E0C0D075D000C000C28F7806E2240189
:10046800F218E23400F2C308E2942818E29400502B
:100478000C758DFE758BD3C2A0C2A180547806E29C
:100488006428700218E2701A7810E2C394205008A9
:10049800758DFF758BFF8006758DFE758BFED2A15D
:1004A800802FC37806E2945018E29400500C758DA2
:1004B800FE758BD3C2A0C2A180177806E264507083
:1004C8000218E2700CC28E7805F208F27810E20485
:0804D800F2D000D0D0D0E032D8
:1005600075C60DE4F5C790203FE0F58F75850775DA
:100570008440758601758E8075D8A3E4F5D975E140
:10058000F075D10FF59075DAF675E2F675CFCF7587
:10059000D239F5A0F5DBF5E375D3FFF5B075DCDFF7
:1005A00075E4DF75D7EF75D43CF5B375DDEF75E510
:1005B000CF75D510758911C28CD2A9758DFE758B3A
:1005C000D3C28F438E08D2AB75AEBF75A201F5AB17
:0105D0002208
:03002B0002083B8D
:10083B00C0E0C0D075D000C000C2CF75CBF675CA72
:0D084B003B7807E204F2D000D0D0D0E032BC
:0E08BE00E4F5C975CBF675CA3BD2CAD2AD229D
:10088E00E4780CF208F2C204C2057805F208F222EE
:0308EA00D2012216
:0308ED00D205220F
:0708D70075DE20E4F5DF22CD
:1007CE00EF4420F5DF43DEC0E5DE30E4FB53DEEF21
:1007DE00AFE6EF75F004A4FFAEF0E5DE5403FDE5E1
:0507EE00F0EF4DFF22B9
:100686007F1C1207CE7800EEF208EFF2C3E2945513
:1006960018E29402502B780C08E22401FFF218E2CB
:1006A6003400FEF2D3EF9490EE940140142004112E
:1006B60008E224FFF218E234FFF2D2047F021200AD
:0F06C600167800E2FF08E27809CFF208EFF2227F
:0B08CC00EF1FAC0670011E4C70F622FE
:10062F00A905EF6014D2A3E4FFFE1208CCD2A2E416
:10063F00FFFE1208CCC2A38012D2A3E4FFFE120861
:10064F00CCC2A2E4FFFE1208CCC2A3E4FDEDC39915
:10065F00501AE4FFFE1208CCD2A2E4FFFE1208CC1F
:10066F00AF03AE021208CCC2A20D80E1E4FFFE126E
:07067F0008CCD2A3D2A22295
:1004E0007810E2C3944040537808E2B4010BE4FB77
:1004F000FA7D34FF12062F80317808E2B4020BE453
:10050000FBFA7D38FF12062F80207808E2B4030B37
:10051000E4FBFA7D3CFF12062F800F7808E2B4045A
:1005200009E4FBFA7D40FF12062FE47810F2758D86
:10053000FF758BFFD2A0D28ED28E227810E2FF7888
:100540000BE26F601AE4FBFA7D027F0112062F7541
:100550008DFF758BFFD2A0D28E7810E2780BF2223D
:100066001205601208BE12088E1208E5D2AFD2B58C
:100076001203A278327414F2E4FBFDFF120817E4AF
:10008600F58043A0E0781204F21208DE7812E2143A
:10009600B4130040030202CD9000AC75F003A4C572
:1000A6008325F0C583730200E502010F0202CD022B
:1000B6000164020164020164020164020164020235
:1000C600CD0201F40201F40201F40201F40202CDB0
:1000D6000201480202CD0202850202B80200F9308E
:1000E6000A030202CD75800F53A01F78127412F214
:1000F6000202CDD2B578327414F2E4FBFDFF120889
:100106001778127401F20202CD7803E26411702AA4
:100116007F0212001678127404F2780874FFF2E473
:10012600F580120006D2B578327414F27B04E4FD31
:100136007F01120817D2020202CD7F0112001602B9
:1001460002CD300A030202CD7804E27812F243B3FC
:1001560020D2A4E224FC7808F2D28E0202CD7803E3
:10016600E26411600330050878127411F20202CDC0
:100176007803E2640170287812E204F2E2B409031B
:100186007405F27812E27804F27812740FF278327B
:100196007414F27B027D027F011208170202CD78E9
:1001A60003E2B402267812740AF278297406F2532E
:1001B600B3DFC2A4E47808F2C28E7832740AF27B06
:1001C600037D037F011208170202CD2001030202FC
:1001D600CD7812E2640470030202CD7832740AF21A
:1001E6007B047D04E4FF120817C2010202CD7803E6
:1001F600E26411600330050878127411F20202CD30
:100206007803E2B4012278127405F2E27804F278F7
:1002160012740FF278327414F27B027D027F01129F
:10022600081753ABBF0202CD7803E26402703B7835
:1002360012E204F2C3940E4003740AF2782974069B
:10024600F253B3DFC2A4E47808F2C28E7832740A9D
:10025600F27B037D037F011208177812E2B40D05C5
:1002660043AB40806253ABBF805D30015A78327435
:100276000AF27B047D04E4FF120817C20180487865
:10028600127412F2E47802F2C20253B3DFC2A47807
:1002960008F2C28E53ABBFC201780CF208F2C20458
:0202A6007832AC
:1002A8007414F2E4FB7D047F01120817C20580155F
:1002B80075800F53A01F200A0CC2B57F01120016CB
:1002C80078127402F27812E2C394044016E2D394CE
:1002D8000E50102002031208D77812E2640460035B
:1002E8001204E030040578127410F27807E2C3941F
:1002F800015007E47803F202008FE47807F2780FE0
:10030800E22401F218E23400F21207A712089E1242
:1003180005D17803EFF27812E2C394044006E2D3E1
:10032800940E400A7812E26410600302008FD378BA
:100338000FE294D018E264809487500302008FE49F
:10034800F208F23000028001D392007812E26410C1
:10035800602730000302008F7832740AF27B017D37
:1003680001E4FF1208177813E204F2C3943C500327
:1003780002008FE214F202008F78327414F2E4FB68
:100388007D047F011208177811E204F2C394065025
:0A0398000302008FD20502008F223D
:1008AE00FD34FD82FDC8FDE8FE22FE56FE85FE9A51
:10075000E4782FF208F2A2B3337822F2E2FF25E028
:10076000FFA2B2E4334FF208E2FF18E26F600DE23D
:0D07700008F218E2781CF2E408F208F22208
:1005D100E4FFC3781EE294C918E29400500A08E2CD
:1005E1002401F218E23400F2781EE2641470021859
:1005F100E27014781EE22401F218E23400F218E2EB
:10060100FF702A7FF08026781EE264C8700218E22B
:10061100701B781CE2FF6015781EE22401F218E2DB
:0E0621003400F2EFB401047F1180027FF0225A
:100858007818E204F2C394644010E47818F2B206FF
:0B08680030060475800F22E4F58022AA
:100873007824E204F2C394644010E47824F2B207CB
:0B0883003007047580052275800A22F2
:10002E0030040B7812E2640260041208732278081E
:10003E00E2B4FF04120858227808E26012E214FFBC
:10004E007401A807088002C333D8FCF4F58022752A
:03005E00800F22EE
:1006D500AEA07812E224F6601A14602714601C1488
:1006E500600B8000EE541FFF53ABBF801CEE44E04F
:1006F500FF8016EE541F4480FF800EEE541F4440C9
:10070500FF8006EE541F4420FF8FA0E47817F222E5
:05000600E47818F2226D
:10089E001208DE1207501203A212002E1206D522E3
:03000B000207F3F6
:1007F300C0E0C0D075D000C000C28D300A0D78159E
:10080300E2F58C08E2F58AB2938002C293D000D05D
:04081300D0D0E0322F
:1003A200200A0302044E7825E2FF7814E204FEF2EA
:1003B200C3EF6480F8EE6480985003020457E47837
:1003C20014F23009127827E2FF7819E2FEEF648016
:1003D200F8EE64809840162009167827E2FF781913
:1003E200E2FED3EF6480F8EE6480984003C20A22F2
:1003F2007819E2FF3395E0FEEF25E0FFEE33FE745D
:10040200AE2FF58274083EF583E4937815F27819DD
:10041200E2FF3395E0FEEF25E0FFEE33FE74AF2FEF
:10042200F58274083EF583E4937816F218E2F58CAF
:1004320008E2F58A758911C28DD2A9D28C300906DB
:100442007819E214F2227819E204F222C28CC2A9CB
:06045200781474FAF22296
:10081700300A03EF601DD20AC20B7819EDF2783265
:10082700E27825F27827EBF2FFEDD39F4003D20958
:0408370022C20922AE
:0708DE00C2DBC2DAD2D8220E
:0300630002000E8A
:05000E00C2DBD2D83274
:030003000208F000
:0308F000C2893288
:030013000208F3ED
:0308F300C28B3283
:10077D00E4F5A1F5A853A1EFC2D975BA01D2A8D25B
:10078D00AF5391FE75800FF590C2B575871EC2A847
:0A079D0043A110D2ABD2CAD2AD22A4
:05001600782CEFF2223E
:10071500782D08E22401FFF218E23400FEF2C3EF5F
:1007250094E8EE94034023E4782DF208F2782A0841
:10073500E22401FFF218E23400FEF2C3EF9478EEF2
:0B07450094004006E4782AF208F2223B
:0508E500E4782CF22272
:1007A700782CE224FE600B146019240270181207DB
:1007B7007D22E4782AF208F2782DF208F27F0312FC
:0707C70000162212071522A3
:00000001FF
